{
  "transactions": [
    {
      "hash": "0x35779182d2cf86549601fb0a9d80142a217a31a1cb579f7be4c61546dfffa5e2",
      "transactionType": "CALL",
      "contractName": null,
      "contractAddress": "0xb38ee787efbdb2671520dfa6516e587c361ffc1c",
      "function": "approve(address,uint256)",
      "arguments": [
        "0x000000000022D473030F116dDEE9F6B43aC78BA3",
        "115792089237316195423570985008687907853269984665640564039457584007913129639935"
      ],
      "transaction": {
        "from": "0xa623046b3cb9619bace903a8c6d7a1c0a6723c53",
        "to": "0xb38ee787efbdb2671520dfa6516e587c361ffc1c",
        "gas": "0x10da9",
        "value": "0x0",
        "input": "0x095ea7b3000000000000000000000000000000000022d473030f116ddee9f6b43ac78ba3ffffffffffffffffffffffffffffffffffffffffffffffffffffffffffffffff",
        "nonce": "0x11",
        "chainId": "0xaa36a7"
      },
      "additionalContracts": [],
      "isFixedGasLimit": false
    },
    {
      "hash": "0x51835e8b65dbf00cbcf4ef337efe89e553f9d7c130d7189c1bf0ea9bd4ffba56",
      "transactionType": "CALL",
      "contractName": null,
      "contractAddress": "0x000000000022d473030f116ddee9f6b43ac78ba3",
      "function": "approve(address,address,uint160,uint48)",
      "arguments": [
        "0xb38eE787EfBdB2671520dFA6516E587c361fFC1c",
        "0x429ba70129df741B2Ca2a85BC3A2a3328e5c09b4",
        "1461501637330902918203684832716283019655932542975",
        "281474976710655"
      ],
      "transaction": {
        "from": "0xa623046b3cb9619bace903a8c6d7a1c0a6723c53",
        "to": "0x000000000022d473030f116ddee9f6b43ac78ba3",
        "gas": "0x1112d",
        "value": "0x0",
        "input": "0x87517c45000000000000000000000000b38ee787efbdb2671520dfa6516e587c361ffc1c000000000000000000000000429ba70129df741b2ca2a85bc3a2a3328e5c09b4000000000000000000000000ffffffffffffffffffffffffffffffffffffffff0000000000000000000000000000000000000000000000000000ffffffffffff",
        "nonce": "0x12",
        "chainId": "0xaa36a7"
      },
      "additionalContracts": [],
      "isFixedGasLimit": false
    },
    {
      "hash": "0x05bc576566bc953915c941ede517acf45300dfa6d1a171f6919d722ce3f60212",
      "transactionType": "CALL",
      "contractName": null,
      "contractAddress": "0x8b48f37aa93e9d0ffb53ee9c968722397223c022",
      "function": "approve(address,uint256)",
      "arguments": [
        "0x000000000022D473030F116dDEE9F6B43aC78BA3",
        "115792089237316195423570985008687907853269984665640564039457584007913129639935"
      ],
      "transaction": {
        "from": "0xa623046b3cb9619bace903a8c6d7a1c0a6723c53",
        "to": "0x8b48f37aa93e9d0ffb53ee9c968722397223c022",
        "gas": "0x10da9",
        "value": "0x0",
        "input": "0x095ea7b3000000000000000000000000000000000022d473030f116ddee9f6b43ac78ba3ffffffffffffffffffffffffffffffffffffffffffffffffffffffffffffffff",
        "nonce": "0x13",
        "chainId": "0xaa36a7"
      },
      "additionalContracts": [],
      "isFixedGasLimit": false
    },
    {
      "hash": "0xfe73cfbdea3efaf061967d218afced585bce63aa56b5159a99e679b095543783",
      "transactionType": "CALL",
      "contractName": null,
      "contractAddress": "0x000000000022d473030f116ddee9f6b43ac78ba3",
      "function": "approve(address,address,uint160,uint48)",
      "arguments": [
        "0x8b48F37aa93E9D0FfB53eE9C968722397223c022",
        "0x429ba70129df741B2Ca2a85BC3A2a3328e5c09b4",
        "1461501637330902918203684832716283019655932542975",
        "281474976710655"
      ],
      "transaction": {
        "from": "0xa623046b3cb9619bace903a8c6d7a1c0a6723c53",
        "to": "0x000000000022d473030f116ddee9f6b43ac78ba3",
        "gas": "0x1112d",
        "value": "0x0",
        "input": "0x87517c450000000000000000000000008b48f37aa93e9d0ffb53ee9c968722397223c022000000000000000000000000429ba70129df741b2ca2a85bc3a2a3328e5c09b4000000000000000000000000ffffffffffffffffffffffffffffffffffffffff0000000000000000000000000000000000000000000000000000ffffffffffff",
        "nonce": "0x14",
        "chainId": "0xaa36a7"
      },
      "additionalContracts": [],
      "isFixedGasLimit": false
    },
    {
      "hash": "0xd8d349a969f7cf7c4f5f7e20668ce35fd9aa4d15a229aac0638d01aa97df83a8",
      "transactionType": "CALL",
      "contractName": null,
      "contractAddress": "0x429ba70129df741b2ca2a85bc3a2a3328e5c09b4",
      "function": "multicall(bytes[])",
      "arguments": [
        "[0xf70204050000000000000000000000008b48f37aa93e9d0ffb53ee9c968722397223c022000000000000000000000000b38ee787efbdb2671520dfa6516e587c361ffc1c0000000000000000000000000000000000000000000000000000000000800000000000000000000000000000000000000000000000000000000000000000000a0000000000000000000000009ba37001fbd17ac55e0d43917eae7a49862860800000000000000000000000000000000000000000000001ad7f29abcaf485787a00000000000000000000000000000000000000000000000000000000000000e00000000000000000000000000000000000000000000000000000000000000000, 0xdd46508f000000000000000000000000000000000000000000000000000000000000004000000000000000000000000000000000000000000000000000000000685de5300000000000000000000000000000000000000000000000000000000000000400000000000000000000000000000000000000000000000000000000000000004000000000000000000000000000000000000000000000000000000000000000800000000000000000000000000000000000000000000000000000000000000004020d14140000000000000000000000000000000000000000000000000000000000000000000000000000000000000000000000000000000000000000000000040000000000000000000000000000000000000000000000000000000000000080000000000000000000000000000000000000000000000000000000000000024000000000000000000000000000000000000000000000000000000000000002a0000000000000000000000000000000000000000000000000000000000000030000000000000000000000000000000000000000000000000000000000000001a00000000000000000000000008b48f37aa93e9d0ffb53ee9c968722397223c022000000000000000000000000b38ee787efbdb2671520dfa6516e587c361ffc1c0000000000000000000000000000000000000000000000000000000000800000000000000000000000000000000000000000000000000000000000000000000a0000000000000000000000009ba37001fbd17ac55e0d43917eae7a4986286080fffffffffffffffffffffffffffffffffffffffffffffffffffffffffffaf772fffffffffffffffffffffffffffffffffffffffffffffffffffffffffffb320a0000000000000000000000000000000000000000000000000000000000000c7b00000000000000000000000000000000000000000000000000000002540be40100000000000000000000000000000000000000000000d3c21bcecceda1000001000000000000000000000000a623046b3cb9619bace903a8c6d7a1c0a6723c530000000000000000000000000000000000000000000000000000000000000180000000000000000000000000000000000000000000000000000000000000000000000000000000000000000000000000000000000000000000000000000000400000000000000000000000008b48f37aa93e9d0ffb53ee9c968722397223c022000000000000000000000000b38ee787efbdb2671520dfa6516e587c361ffc1c00000000000000000000000000000000000000000000000000000000000000400000000000000000000000008b48f37aa93e9d0ffb53ee9c968722397223c022000000000000000000000000a623046b3cb9619bace903a8c6d7a1c0a6723c530000000000000000000000000000000000000000000000000000000000000040000000000000000000000000b38ee787efbdb2671520dfa6516e587c361ffc1c000000000000000000000000a623046b3cb9619bace903a8c6d7a1c0a6723c53]"
      ],
      "transaction": {
        "from": "0xa623046b3cb9619bace903a8c6d7a1c0a6723c53",
        "to": "0x429ba70129df741b2ca2a85bc3a2a3328e5c09b4",
        "gas": "0xac8d8",
        "value": "0x0",
        "input": "0xac9650d800000000000000000000000000000000000000000000000000000000000000200000000000000000000000000000000000000000000000000000000000000002000000000000000000000000000000000000000000000000000000000000004000000000000000000000000000000000000000000000000000000000000001800000000000000000000000000000000000000000000000000000000000000104f70204050000000000000000000000008b48f37aa93e9d0ffb53ee9c968722397223c022000000000000000000000000b38ee787efbdb2671520dfa6516e587c361ffc1c0000000000000000000000000000000000000000000000000000000000800000000000000000000000000000000000000000000000000000000000000000000a0000000000000000000000009ba37001fbd17ac55e0d43917eae7a49862860800000000000000000000000000000000000000000000001ad7f29abcaf485787a00000000000000000000000000000000000000000000000000000000000000e00000000000000000000000000000000000000000000000000000000000000000000000000000000000000000000000000000000000000000000000000000000000000000000000000000000000000000000000000000000000000464dd46508f000000000000000000000000000000000000000000000000000000000000004000000000000000000000000000000000000000000000000000000000685de5300000000000000000000000000000000000000000000000000000000000000400000000000000000000000000000000000000000000000000000000000000004000000000000000000000000000000000000000000000000000000000000000800000000000000000000000000000000000000000000000000000000000000004020d14140000000000000000000000000000000000000000000000000000000000000000000000000000000000000000000000000000000000000000000000040000000000000000000000000000000000000000000000000000000000000080000000000000000000000000000000000000000000000000000000000000024000000000000000000000000000000000000000000000000000000000000002a0000000000000000000000000000000000000000000000000000000000000030000000000000000000000000000000000000000000000000000000000000001a00000000000000000000000008b48f37aa93e9d0ffb53ee9c968722397223c022000000000000000000000000b38ee787efbdb2671520dfa6516e587c361ffc1c0000000000000000000000000000000000000000000000000000000000800000000000000000000000000000000000000000000000000000000000000000000a0000000000000000000000009ba37001fbd17ac55e0d43917eae7a4986286080fffffffffffffffffffffffffffffffffffffffffffffffffffffffffffaf772fffffffffffffffffffffffffffffffffffffffffffffffffffffffffffb320a0000000000000000000000000000000000000000000000000000000000000c7b00000000000000000000000000000000000000000000000000000002540be40100000000000000000000000000000000000000000000d3c21bcecceda1000001000000000000000000000000a623046b3cb9619bace903a8c6d7a1c0a6723c530000000000000000000000000000000000000000000000000000000000000180000000000000000000000000000000000000000000000000000000000000000000000000000000000000000000000000000000000000000000000000000000400000000000000000000000008b48f37aa93e9d0ffb53ee9c968722397223c022000000000000000000000000b38ee787efbdb2671520dfa6516e587c361ffc1c00000000000000000000000000000000000000000000000000000000000000400000000000000000000000008b48f37aa93e9d0ffb53ee9c968722397223c022000000000000000000000000a623046b3cb9619bace903a8c6d7a1c0a6723c530000000000000000000000000000000000000000000000000000000000000040000000000000000000000000b38ee787efbdb2671520dfa6516e587c361ffc1c000000000000000000000000a623046b3cb9619bace903a8c6d7a1c0a6723c5300000000000000000000000000000000000000000000000000000000",
        "nonce": "0x15",
        "chainId": "0xaa36a7"
      },
      "additionalContracts": [],
      "isFixedGasLimit": false
    }
  ],
  "receipts": [
    {
      "status": "0x1",
      "cumulativeGasUsed": "0x12b655c",
      "logs": [
        {
          "address": "0xb38ee787efbdb2671520dfa6516e587c361ffc1c",
          "topics": [
            "0x8c5be1e5ebec7d5bd14f71427d1e84f3dd0314c0f7b2291e5b200ac8c7c3b925",
            "0x000000000000000000000000a623046b3cb9619bace903a8c6d7a1c0a6723c53",
            "0x000000000000000000000000000000000022d473030f116ddee9f6b43ac78ba3"
          ],
          "data": "0xffffffffffffffffffffffffffffffffffffffffffffffffffffffffffffffff",
          "blockHash": "0xa17493d7fea2a14dae261f03c66dc64b506511558f1f8ac43d9228f26602164c",
          "blockNumber": "0x83c783",
          "blockTimestamp": "0x685dd738",
          "transactionHash": "0x35779182d2cf86549601fb0a9d80142a217a31a1cb579f7be4c61546dfffa5e2",
          "transactionIndex": "0xb0",
          "logIndex": "0x114",
          "removed": false
        }
      ],
      "logsBloom": "0x00000000000000000000000000000000000000000000000000000000000000000000000000000000008000000000000000000000800000000000000000200010000000000000000000204000000000000000000000000800000000000000000000000040000000000000000000000000000000000200000000000000000000000000000000000000000000000000000000000000000000000000000000000000020000000000000000000000200000000000000000000000000000000000000000000000000000000000000000000000000000000000000000000000000000000010000000000000000000000000000000000000000000000000000000000000",
      "type": "0x2",
      "transactionHash": "0x35779182d2cf86549601fb0a9d80142a217a31a1cb579f7be4c61546dfffa5e2",
      "transactionIndex": "0xb0",
      "blockHash": "0xa17493d7fea2a14dae261f03c66dc64b506511558f1f8ac43d9228f26602164c",
      "blockNumber": "0x83c783",
      "gasUsed": "0xb863",
      "effectiveGasPrice": "0xf425e",
      "from": "0xa623046b3cb9619bace903a8c6d7a1c0a6723c53",
      "to": "0xb38ee787efbdb2671520dfa6516e587c361ffc1c",
      "contractAddress": null
    },
    {
      "status": "0x1",
      "cumulativeGasUsed": "0x12c2026",
      "logs": [
        {
          "address": "0x000000000022d473030f116ddee9f6b43ac78ba3",
          "topics": [
            "0xda9fa7c1b00402c17d0161b249b1ab8bbec047c5a52207b9c112deffd817036b",
            "0x000000000000000000000000a623046b3cb9619bace903a8c6d7a1c0a6723c53",
            "0x000000000000000000000000b38ee787efbdb2671520dfa6516e587c361ffc1c",
            "0x000000000000000000000000429ba70129df741b2ca2a85bc3a2a3328e5c09b4"
          ],
          "data": "0x000000000000000000000000ffffffffffffffffffffffffffffffffffffffff0000000000000000000000000000000000000000000000000000ffffffffffff",
          "blockHash": "0xa17493d7fea2a14dae261f03c66dc64b506511558f1f8ac43d9228f26602164c",
          "blockNumber": "0x83c783",
          "blockTimestamp": "0x685dd738",
          "transactionHash": "0x51835e8b65dbf00cbcf4ef337efe89e553f9d7c130d7189c1bf0ea9bd4ffba56",
          "transactionIndex": "0xb1",
          "logIndex": "0x115",
          "removed": false
        }
      ],
      "logsBloom": "0x00010000000000000000000000080000000000000000000000000000000000000000000000000040088000000000000000000000000000000000000000080010000000000000000000000000000000000000000000000000000000000000000000000040000000000000000000000000000000000000000000000800000000000024000000000000000000000000000000000000000000000000000000000000000000000000000000000000000000000000000000000000000000080000000000000000002000000000000000000000000000000000000040000000000000000000000000000000000000000000000000000000000000000000000000000400",
      "type": "0x2",
      "transactionHash": "0x51835e8b65dbf00cbcf4ef337efe89e553f9d7c130d7189c1bf0ea9bd4ffba56",
      "transactionIndex": "0xb1",
      "blockHash": "0xa17493d7fea2a14dae261f03c66dc64b506511558f1f8ac43d9228f26602164c",
      "blockNumber": "0x83c783",
      "gasUsed": "0xbaca",
      "effectiveGasPrice": "0xf425e",
      "from": "0xa623046b3cb9619bace903a8c6d7a1c0a6723c53",
      "to": "0x000000000022d473030f116ddee9f6b43ac78ba3",
      "contractAddress": null
    },
    {
      "status": "0x1",
      "cumulativeGasUsed": "0x12cd889",
      "logs": [
        {
          "address": "0x8b48f37aa93e9d0ffb53ee9c968722397223c022",
          "topics": [
            "0x8c5be1e5ebec7d5bd14f71427d1e84f3dd0314c0f7b2291e5b200ac8c7c3b925",
            "0x000000000000000000000000a623046b3cb9619bace903a8c6d7a1c0a6723c53",
            "0x000000000000000000000000000000000022d473030f116ddee9f6b43ac78ba3"
          ],
          "data": "0xffffffffffffffffffffffffffffffffffffffffffffffffffffffffffffffff",
          "blockHash": "0xa17493d7fea2a14dae261f03c66dc64b506511558f1f8ac43d9228f26602164c",
          "blockNumber": "0x83c783",
          "blockTimestamp": "0x685dd738",
          "transactionHash": "0x05bc576566bc953915c941ede517acf45300dfa6d1a171f6919d722ce3f60212",
          "transactionIndex": "0xb2",
          "logIndex": "0x116",
          "removed": false
        }
      ],
      "logsBloom": "0x00000000000000000000000400000000000000000000000000000000000000000000000000000000008000000000000000000000800000000000000000200010000000000000000000004000000000000000000000000800000000000000000000000040000000000000000000000000000000000000000000000000000000000000000000000000000000000000000000000000000000000000000000000000020000000000000000000000000000000000000000000400000000000000000000000000000000000000000000000000000000000000000000000000000000000010000000100000000000000000000000000000000000000000000000000000",
      "type": "0x2",
      "transactionHash": "0x05bc576566bc953915c941ede517acf45300dfa6d1a171f6919d722ce3f60212",
      "transactionIndex": "0xb2",
      "blockHash": "0xa17493d7fea2a14dae261f03c66dc64b506511558f1f8ac43d9228f26602164c",
      "blockNumber": "0x83c783",
      "gasUsed": "0xb863",
      "effectiveGasPrice": "0xf425e",
      "from": "0xa623046b3cb9619bace903a8c6d7a1c0a6723c53",
      "to": "0x8b48f37aa93e9d0ffb53ee9c968722397223c022",
      "contractAddress": null
    },
    {
      "status": "0x1",
      "cumulativeGasUsed": "0x12d9353",
      "logs": [
        {
          "address": "0x000000000022d473030f116ddee9f6b43ac78ba3",
          "topics": [
            "0xda9fa7c1b00402c17d0161b249b1ab8bbec047c5a52207b9c112deffd817036b",
            "0x000000000000000000000000a623046b3cb9619bace903a8c6d7a1c0a6723c53",
            "0x0000000000000000000000008b48f37aa93e9d0ffb53ee9c968722397223c022",
            "0x000000000000000000000000429ba70129df741b2ca2a85bc3a2a3328e5c09b4"
          ],
          "data": "0x000000000000000000000000ffffffffffffffffffffffffffffffffffffffff0000000000000000000000000000000000000000000000000000ffffffffffff",
          "blockHash": "0xa17493d7fea2a14dae261f03c66dc64b506511558f1f8ac43d9228f26602164c",
          "blockNumber": "0x83c783",
          "blockTimestamp": "0x685dd738",
          "transactionHash": "0xfe73cfbdea3efaf061967d218afced585bce63aa56b5159a99e679b095543783",
          "transactionIndex": "0xb3",
          "logIndex": "0x117",
          "removed": false
        }
      ],
      "logsBloom": "0x00010000000000000000000000000000000000000000000000000000000000000000000000000040088000000000000000000000000000000000000000080010000000000000000000000000000000000000000000000000000000000000000000000040000000000004000000000000000000000000000000000800000000000020000000000000000000000000000000000000000000000000000000000000000000000000000000000000000000000000000000000000000000080000000000000000000000000000000000000000000000000000000040000040000000000000000000000000000000000000000000000000000000000000020000000400",
      "type": "0x2",
      "transactionHash": "0xfe73cfbdea3efaf061967d218afced585bce63aa56b5159a99e679b095543783",
      "transactionIndex": "0xb3",
      "blockHash": "0xa17493d7fea2a14dae261f03c66dc64b506511558f1f8ac43d9228f26602164c",
      "blockNumber": "0x83c783",
      "gasUsed": "0xbaca",
      "effectiveGasPrice": "0xf425e",
      "from": "0xa623046b3cb9619bace903a8c6d7a1c0a6723c53",
      "to": "0x000000000022d473030f116ddee9f6b43ac78ba3",
      "contractAddress": null
    },
    {
      "status": "0x1",
      "cumulativeGasUsed": "0x134f315",
      "logs": [
        {
          "address": "0xe03a1074c86cfedd5c142c4f04f1a1536e203543",
          "topics": [
            "0xdd466e674ea557f56295e2d0218a125ea4b4f0f6f3307b95f85e6110838d6438",
            "0xd436055bd426bd1cb4cceb3dd56c9f4aa2a21249cc6b3261520f7d86d7c1dc50",
            "0x0000000000000000000000008b48f37aa93e9d0ffb53ee9c968722397223c022",
            "0x000000000000000000000000b38ee787efbdb2671520dfa6516e587c361ffc1c"
          ],
          "data": "0x0000000000000000000000000000000000000000000000000000000000800000000000000000000000000000000000000000000000000000000000000000000a0000000000000000000000009ba37001fbd17ac55e0d43917eae7a49862860800000000000000000000000000000000000000000000001ad7f29abcaf485787afffffffffffffffffffffffffffffffffffffffffffffffffffffffffffb14b5",
          "blockHash": "0xa17493d7fea2a14dae261f03c66dc64b506511558f1f8ac43d9228f26602164c",
          "blockNumber": "0x83c783",
          "blockTimestamp": "0x685dd738",
          "transactionHash": "0xd8d349a969f7cf7c4f5f7e20668ce35fd9aa4d15a229aac0638d01aa97df83a8",
          "transactionIndex": "0xb4",
          "logIndex": "0x118",
          "removed": false
        },
        {
          "address": "0x429ba70129df741b2ca2a85bc3a2a3328e5c09b4",
          "topics": [
            "0xddf252ad1be2c89b69c2b068fc378daa952ba7f163c4a11628f55a4df523b3ef",
            "0x0000000000000000000000000000000000000000000000000000000000000000",
            "0x000000000000000000000000a623046b3cb9619bace903a8c6d7a1c0a6723c53",
            "0x00000000000000000000000000000000000000000000000000000000000037c7"
          ],
          "data": "0x",
          "blockHash": "0xa17493d7fea2a14dae261f03c66dc64b506511558f1f8ac43d9228f26602164c",
          "blockNumber": "0x83c783",
          "blockTimestamp": "0x685dd738",
          "transactionHash": "0xd8d349a969f7cf7c4f5f7e20668ce35fd9aa4d15a229aac0638d01aa97df83a8",
          "transactionIndex": "0xb4",
          "logIndex": "0x119",
          "removed": false
        },
        {
          "address": "0xe03a1074c86cfedd5c142c4f04f1a1536e203543",
          "topics": [
            "0xf208f4912782fd25c7f114ca3723a2d5dd6f3bcc3ac8db5af63baa85f711d5ec",
            "0xd436055bd426bd1cb4cceb3dd56c9f4aa2a21249cc6b3261520f7d86d7c1dc50",
            "0x000000000000000000000000429ba70129df741b2ca2a85bc3a2a3328e5c09b4"
          ],
          "data": "0xfffffffffffffffffffffffffffffffffffffffffffffffffffffffffffaf772fffffffffffffffffffffffffffffffffffffffffffffffffffffffffffb320a0000000000000000000000000000000000000000000000000000000000000c7b00000000000000000000000000000000000000000000000000000000000037c7",
          "blockHash": "0xa17493d7fea2a14dae261f03c66dc64b506511558f1f8ac43d9228f26602164c",
          "blockNumber": "0x83c783",
          "blockTimestamp": "0x685dd738",
          "transactionHash": "0xd8d349a969f7cf7c4f5f7e20668ce35fd9aa4d15a229aac0638d01aa97df83a8",
          "transactionIndex": "0xb4",
          "logIndex": "0x11a",
          "removed": false
        },
        {
          "address": "0x8b48f37aa93e9d0ffb53ee9c968722397223c022",
          "topics": [
            "0xddf252ad1be2c89b69c2b068fc378daa952ba7f163c4a11628f55a4df523b3ef",
            "0x000000000000000000000000a623046b3cb9619bace903a8c6d7a1c0a6723c53",
            "0x000000000000000000000000e03a1074c86cfedd5c142c4f04f1a1536e203543"
          ],
          "data": "0x0000000000000000000000000000000000000000000000000000000254046eb0",
          "blockHash": "0xa17493d7fea2a14dae261f03c66dc64b506511558f1f8ac43d9228f26602164c",
          "blockNumber": "0x83c783",
          "blockTimestamp": "0x685dd738",
          "transactionHash": "0xd8d349a969f7cf7c4f5f7e20668ce35fd9aa4d15a229aac0638d01aa97df83a8",
          "transactionIndex": "0xb4",
          "logIndex": "0x11b",
          "removed": false
        },
        {
          "address": "0xb38ee787efbdb2671520dfa6516e587c361ffc1c",
          "topics": [
            "0xddf252ad1be2c89b69c2b068fc378daa952ba7f163c4a11628f55a4df523b3ef",
            "0x000000000000000000000000a623046b3cb9619bace903a8c6d7a1c0a6723c53",
            "0x000000000000000000000000e03a1074c86cfedd5c142c4f04f1a1536e203543"
          ],
          "data": "0x0000000000000000000000000000000000000000000000000000000000000001",
          "blockHash": "0xa17493d7fea2a14dae261f03c66dc64b506511558f1f8ac43d9228f26602164c",
          "blockNumber": "0x83c783",
          "blockTimestamp": "0x685dd738",
          "transactionHash": "0xd8d349a969f7cf7c4f5f7e20668ce35fd9aa4d15a229aac0638d01aa97df83a8",
          "transactionIndex": "0xb4",
          "logIndex": "0x11c",
          "removed": false
        }
      ],
      "logsBloom": "0x00000000000000080000001400080000000000000000000000000000080000000000000000000040088000000000000000400100000000000000000000000010000000000000000000200008000000000000000000000000000000000000000000000040020000000004000080000800000000000200100000000810000000000004000001000008000010000000000000000001800000000000000000210000000004000000000000000000200000000000000000400400000000200000000000000002002000000000000000000000000000000000000000001040000020001000000000100000000000000000000004000000000000000000020000000100",
      "type": "0x2",
      "transactionHash": "0xd8d349a969f7cf7c4f5f7e20668ce35fd9aa4d15a229aac0638d01aa97df83a8",
      "transactionIndex": "0xb4",
      "blockHash": "0xa17493d7fea2a14dae261f03c66dc64b506511558f1f8ac43d9228f26602164c",
      "blockNumber": "0x83c783",
      "gasUsed": "0x75fc2",
      "effectiveGasPrice": "0xf425e",
      "from": "0xa623046b3cb9619bace903a8c6d7a1c0a6723c53",
      "to": "0x429ba70129df741b2ca2a85bc3a2a3328e5c09b4",
      "contractAddress": null
    }
  ],
  "libraries": [],
  "pending": [],
  "returns": {},
  "timestamp": 1750980409,
  "chain": 11155111,
  "commit": "4d3ccbc"
}